:100000000C94CD010C94F5010C94F5010C94F501C0
:100010000C94F5010C94F5010C94F5010C94F50188
:100020000C94F5010C94F5010C94F5010C94E92065
:100030000C94F5010C94DF200C94F5010C94F5015F
:100040000C943D200C94F5010C94AD200C94872069
:100050000C94F5010C94F5010C94F5010C94F50148
:100060000C94F5010C94F501520053005400550016
:100070005600600061006A006B00740075007E002D
:10008000A600A700A800A900AA009D009C0093005C
:100090009200890088007F005200530054005500F0
:1000A0005600600061006A006B00740075007E00FD
:1000B000A500BD00BC00BB00BA00B900AB009D00AC
:1000C0009C0093009200890088007F00520053003A
:1000D000540055005600600061006A006B00740017
:1000E00075007E00A500BE00C500C600C700C800A0
:1000F000B900AB009D009C0093009200890088002D
:100100007F005200410040003F003E005700600069
:1001100061006A006B00740075007E00A500BE00DF
:10012000C400E100E000DF00DE00C900B800AB0061
:100130009D009C0093009200890088007F0052007F
:1001400041003100320033003D0057006000610083
:100150006A006B00740075007E00A500BE00C4003C
:10016000E200EA00EB00EC00DE00C900B800AB00E2
:100170009D009C0093009200890088007F00510040
:1001800052004100310016001500140035003C00FB
:1001900058005F00620069006C00730076007D000B
:1001A000A400BF00C300E300E90002010101EC006C
:1001B000DE00C900CA00B700AC009E009B0094009E
:1001C00091008A00870080002700280048004D0029
:1001D0004E004F00500051004200300017000B004D
:1001E0000C000D00130036003B0059005E00630058
:1001F00068006D00720077007C00A400BF00C3009F
:10020000E300E800040109010A010B010001ED000F
:10021000DD00CA00CB00CC00CD00CE00D700D60058
:10022000D500B500AD009F009A00950090008B00AE
:1002300086008100200021002200230029004700C1
:1002400046004500440043002F0018000A00070044
:10025000060005000E000F00120037003A005A0099
:100260005D00640067006E00710078007B00A300F1
:10027000C000C200E400E7000501080111011001FF
:100280000F010C01FF00EE00DC00DB00DA00D900FA
:10029000D800D700F500F600F700F800D400D10030
:1002A000D000CF00B400AE00A000990096008F00EF
:1002B0008C00850082004D00480049004A0026005D
:1002C0001E001F001D001C001B001A0024002A0035
:1002D0002B002C002D002E00190009000800000042
:1002E0000100020004000300100011003800390072
:1002F0005B005C00650066006F00700079007A00AA
:10030000A200C100E500E600060107011201130189
:10031000140115010E010D01FE00EF00F000F100C7
:10032000F200F300F400FD00FC00FB00FA00F9000D
:10033000D300D200B000B100B200B300AF00A10002
:10034000980097008E008D00840083004D004800C7
:1003500049004A004B004C0025001F00000000002F
:10036000250028002B0000000000240027002A00A0
:10037000040404040404040402020202020203034B
:100380000303030301020408102040800102040853
:100390001020010204081020862111241FBECFEF77
:1003A000D8E0DEBFCDBF11E0A0E0B1E0EAEFF5E5B7
:1003B00002C005900D92A636B107D9F722E0A6E655
:1003C000B1E001C01D92A337B207E1F711E0CDEC17
:1003D000D1E004C02197FE010E94B029CC3CD10796
:1003E000C9F70E94DD210C94FB2A0C94000020E048
:1003F000DC0160FF03C001C02D932D936250E0F734
:100400007040D0F70895CF93DF93C091A301D091AE
:10041000A401209789F08A819B81009749F02D855E
:100420003E85B901660F771F620F731F0E94F701A7
:100430000C80DD81C02DEDCFDF91CF9108958E30FE
:1004400008F082E0806480937C0080917A00806470
:1004500080937A0080917A0086FDFCCF80917800AD
:100460009091790008953FB7F89480919A01909106
:100470009B01A0919C01B0919D0126B5A89B05C050
:100480002F3F19F00196A11DB11D3FBFBA2FA92F13
:10049000982F8827BC01CD01620F711D811D911D10
:1004A00042E0660F771F881F991F4A95D1F708957C
:1004B0008F929F92AF92BF92CF92DF92EF92FF9274
:1004C0000E9433024B015C0188EEC82E83E0D82ED7
:1004D000E12CF12C0E943302681979098A099B09E1
:1004E000683E734081059105A8F321E0C21AD10846
:1004F000E108F10888EE880E83E0981EA11CB11C6B
:10050000C114D104E104F10429F7FF90EF90DF90CA
:10051000CF90BF90AF909F908F9008952FB7F89491
:100520006091960170919701809198019091990145
:100530002FBF0895CF92DF92EF92FF920F931F93F8
:100540000E948E020091AB011091AC012091AD018F
:100550003091AE016B017C01C01AD10AE20AF30AA4
:10056000A7019601211531054105510521F421E02E
:1005700030E040E050E0E091A901F091AA0188EE5E
:1005800093E0E89FB001E99F700DF89F700D112472
:10059000072E000C880B990B0E94222730934E02E5
:1005A00020934D021092AA011092A9010E948E027E
:1005B0006093AB017093AC018093AD019093AE0159
:1005C0001F910F91FF90EF90DF90CF9008953F9291
:1005D0004F925F926F927F928F929F92AF92BF9253
:1005E000CF92DF92EF92FF920F931F93CF93DF93FF
:1005F00000D01F92CDB7DEB74C01F62E80914F028E
:1006000090915002A0915102B0915202892B8A2BF5
:100610008B2BD9F00E9433020091A5011091A60105
:100620002091A7013091A801601B710B820B930BE5
:1006300000914F02109150022091510230915202CC
:100640006017710782079307C8F20E943302609314
:10065000A5017093A6018093A7019093A801E09152
:100660005702F0915802309759F04091530250913F
:10067000540260915502709156028F2D0995F82E03
:100680000091A3011091A4014F2C512C712C612CCD
:100690000115110509F45BC0D8011C96EC901C975C
:1006A00080914D0290914E028436910510F41C9673
:1006B0001C92D801ED91FC91A080B18019821A8220
:1006C0001B82FF2089F1F8013696D12CC12C219193
:1006D000222319F13280332001F130E050E040E074
:1006E0002F5F3F4F4F4F5F4FC301B2010E948C29D4
:1006F0009B01AC01832D90E0B0E0A0E0BC01CD01F6
:100700006F5F7F4F8F4F9F4F0E948C29A1E0B0E019
:10071000AC0FBD1FAC0DBD1D8C93BFEFCB1ADB0A18
:1007200083E0C816D10499F6D8011D964D915C91CD
:100730009E012F5F3F4FB401C801F5010995D80113
:100740001C96EC921C9714960D911C91A1CF809150
:10075000A9019091AA019C012F5F3F4F3093AA01FC
:100760002093A901499714F00E949A020F900F90CC
:100770000F90DF91CF911F910F91FF90EF90DF903D
:10078000CF90BF90AF909F908F907F906F905F9031
:100790004F903F900895CF93DF9300D01F92CDB735
:1007A000DEB7882341F019821A821B8260E0CE01F5
:1007B00001960E94E7020E9403020F900F900F9093
:1007C000DF91CF9108954F925F926F927F929F92A7
:1007D000AF92BF92CF92DF92EF92FF920F931F934F
:1007E000CF93DF9300D01F92CDB7DEB7F0904C02CD
:1007F00080914F0290915002A0915102B09152020B
:10080000892B8A2B8B2BD9F00E9433020091A501F2
:100810001091A6012091A7013091A801601B710BD6
:10082000820B930B00914F021091500220915102C4
:10083000309152026017710782079307C8F20E9435
:1008400033026093A5017093A6018093A701909352
:10085000A801E0915702F0915802309759F0409169
:1008600053025091540260915502709156028F2D9F
:100870000995F82E0091A3011091A4014F2C512C41
:10088000712C612C0115110509F45EC0D8011C966C
:10089000EC901C9780914D0290914E028436910508
:1008A00010F41C961C92D801ED91FC91A280B380AB
:1008B00019821A821B82FF2089F1F8013696D12C09
:1008C000C12C2191222319F19280992001F130E06D
:1008D00050E040E02F5F3F4F4F4F5F4FC301B201E9
:1008E0000E948C299B01AC01892D90E0B0E0A0E032
:1008F000BC01CD016F5F7F4F8F4F9F4F0E948C29AE
:10090000A1E0B0E0AC0FBD1FAC0DBD1D8C93BFEFDF
:10091000CB1ADB0A83E0C816D10499F6D8011D96DC
:100920004D915C911E9712966D917C919E012F5F67
:100930003F4FC801F5010995D8011C96EC921C9710
:1009400014960D911C919ECF8091A9019091AA01BE
:100950009C012F5F3F4F3093AA012093A901499733
:1009600014F00E949A020F900F900F90DF91CF9198
:100970001F910F91FF90EF90DF90CF90BF90AF90BD
:100980009F907F906F905F904F9008958F929F926D
:10099000AF92BF92EF92FF920F931F93CF93DF938B
:1009A00000D01F92CDB7DEB75C01E62EF42E122FD9
:1009B0008091A20181112AC081E00E94CB03B50180
:1009C00090E080E00E94682826E636E646EA5FE38B
:1009D0000E94C0274B015C0120E030E0A9010E9489
:1009E000F62820E030E040E05FE387FD49C0C50124
:1009F000B4010E9454270E9432287093A101609391
:100A0000A001E0929F0181E08093A2010E948E02EA
:100A100080905C0290905D02A0905E02B0905F02B8
:100A2000681979098A099B09633371058105910564
:100A3000C8F060914C0280919E01882331F1F982C7
:100A40001A830B83CE0101960E94E70210929E0149
:100A50000E948E0260935C0270935D0280935E023E
:100A600090935F020F900F900F90DF91CF911F91A5
:100A70000F91FF90EF90BF90AF909F908F9008954F
:100A8000C501B4010E945327B6CF19821A821B8276
:100A9000CE0101960E94E70281E080939E01D8CFAB
:100AA00080E991E00895AF92BF92CF92DF92EF92EA
:100AB000FF920F931F93CF93DF936C017B018B0108
:100AC000040F151FEB015E01AE18BF08C017D10758
:100AD00059F06991D601ED91FC910190F081E02DE2
:100AE000C6010995892B79F7C501DF91CF911F9137
:100AF0000F91FF90EF90DF90CF90BF90AF9008954F
:100B0000FC01538D448D252F30E0842F90E0821B13
:100B1000930B541710F0CF96089501970895FC0198
:100B2000918D828D981761F0A28DAE0FBF2FB11DF0
:100B30005D968C91928D9F5F9F73928F90E0089548
:100B40008FEF9FEF0895FC01918D828D981731F002
:100B5000828DE80FF11D858D90E008958FEF9FEF56
:100B60000895FC01918D228D892F90E0805C9F4F2C
:100B7000821B91098F73992708958FEA91E00E9453
:100B8000B10521E0892B09F420E0822F089580E04F
:100B900090E0892B29F00E94BD0581110C94000082
:100BA0000895FC01A48DA80FB92FB11DA35ABF4F02
:100BB0002C91848D90E001968F739927848FA6895C
:100BC000B7892C93A089B1898C91837080648C93B0
:100BD000938D848D981306C00288F389E02D80815F
:100BE0008F7D80830895EF92FF920F931F93CF9391
:100BF000DF93EC0181E0888F9B8D8C8D98131AC058
:100C0000E889F989808185FF15C09FB7F894EE893E
:100C1000FF896083E889F98980818370806480839B
:100C20009FBF81E090E0DF91CF911F910F91FF90E6
:100C3000EF900895F62E0B8D10E00F5F1F4F0F738E
:100C40001127E02E8C8D8E110CC00FB607FCFACF49
:100C5000E889F989808185FFF5CFCE010E94D10511
:100C6000F1CFEB8DEC0FFD2FF11DE35AFF4FF0821A
:100C70009FB7F8940B8FEA89FB8980818062CFCF80
:100C8000CF93DF93EC01888D8823B9F0AA89BB89C3
:100C9000E889F9898C9185FD03C0808186FD0DC0AE
:100CA0000FB607FCF7CF8C9185FFF2CF808185FFCF
:100CB000EDCFCE010E94D105E9CFDF91CF9108950C
:100CC00008950F931F93CF93DF93209170012F5FAF
:100CD000322F37703093700120FF2BC020E831FD98
:100CE0002064347009F02062205FFC01EC0123963F
:100CF00000E011E06485662329F070E0C8010E94DD
:100D00009C296F5F6187322F369F030E30E0311DC3
:100D10001124311110C01682662311F061506187D1
:100D20003196EC17FD0731F7DF91CF911F910F91AD
:100D3000089520E0D4CF31503683EECF47315105AE
:100D400008F041C0FA01E955F94F0C94B029BE06EC
:100D5000D7060B075E07C8074408C0081E096309C9
:100D6000A809ED09320A770ABC0A010B5A0BC50B18
:100D7000360CAD0C2A0D830DB80DE50D65307105EF
:100D800059F06630710579F064307105E1F482E064
:100D900090E0A0E0B0E004C081E090E0A0E0B0E02E
:100DA000BC01CD01089580E090E0DC01F9CF643012
:100DB000710511F180F46230710511F40C94020E8A
:100DC00063307105A1F0FC0185859685092E000C24
:100DD000AA0BBB0BE5CF66307105C1F090F0673010
:100DE000710589F788E090E0A0E0B0E0D9CF84E019
:100DF00090E0A0E0B0E0D4CF85E090E0A0E0B0E0EB
:100E0000CFCF86E090E0A0E0B0E0CACF87E090E0EE
:100E1000A0E0B0E0C5CFFB013197E331F10598F6D2
:100E2000EC5EF84F0C94B029080E27072C07310709
:100E300036073B0740074507E306E306E306E306FC
:100E4000E306E306E3064A074F07540759078FE016
:100E500090E0A0E0B0E0A4CF8EE090E0A0E0B0E0B1
:100E60009FCF8DE090E0A0E0B0E09ACF8CE090E0E2
:100E7000A0E0B0E095CF8BE090E0A0E0B0E090CFB4
:100E80008AE090E0A0E0B0E08BCF89E090E0A0E0C5
:100E9000B0E086CF8AE190E0A0E0B0E081CF8BE1C6
:100EA00090E0A0E0B0E07CCF8CE190E0A0E0B0E08A
:100EB00077CF8DE190E0A0E0B0E072CFFB013197F9
:100EC000E531F10508F07FCFE859F84F0C94B029CF
:100ED0000E0E7D07820787078C07910796079B07F1
:100EE000A007E306E306E306E306E306A507AA0771
:100EF000AF07B407B907BE07C30782E190E0A0E0DF
:100F0000B0E04ECF83E190E0A0E0B0E049CF84E1D3
:100F100090E0A0E0B0E044CF85E190E0A0E0B0E058
:100F20003FCF86E190E0A0E0B0E03ACF87E190E0EB
:100F3000A0E0B0E035CF88E190E0A0E0B0E030CFB5
:100F400089E190E0A0E0B0E02BCF84E290E0A0E067
:100F5000B0E026CF83E290E0A0E0B0E021CF82E2D3
:100F600090E0A0E0B0E01CCF81E290E0A0E0B0E033
:100F700017CF80E290E0A0E0B0E012CF8FE190E0E8
:100F8000A0E0B0E00DCF8EE190E0A0E0B0E008CFAF
:100F90006431710508F017CFFB01EF52F84F0C9444
:100FA000B029140EE507EA07EF07F407F907FE0773
:100FB000030808080D08120817081C08210826084D
:100FC0002B08300835083A083F0887E390E0A0E096
:100FD000B0E0E6CE86E390E0A0E0B0E0E1CE85E3CD
:100FE00090E0A0E0B0E0DCCE84E390E0A0E0B0E0F0
:100FF000D7CE83E390E0A0E0B0E0D2CE82E390E0F1
:10100000A0E0B0E0CDCE81E390E0A0E0B0E0C8CEBB
:1010100080E390E0A0E0B0E0C3CE8FE290E0A0E0FB
:10102000B0E0BECE8EE290E0A0E0B0E0B9CE8DE2BE
:1010300090E0A0E0B0E0B4CE8CE290E0A0E0B0E0C0
:10104000AFCE8BE290E0A0E0B0E0AACE8AE290E0E2
:10105000A0E0B0E0A5CE89E290E0A0E0B0E0A0CEB4
:1010600088E290E0A0E0B0E09BCE87E290E0A0E0D4
:10107000B0E096CE86E290E0A0E0B0E091CE85E2CE
:1010800090E0A0E0B0E08CCE6431710508F09BCE1A
:10109000FB01E35BF74F0C94B0291A0E6108660858
:1010A0006B08700875087A087F08840889088E081C
:1010B000930898089D08A208A708AC08B108B608CC
:1010C000BB088AE390E0A0E0B0E06ACE8BE390E05A
:1010D000A0E0B0E065CE8CE390E0A0E0B0E060CEB0
:1010E0008DE390E0A0E0B0E05BCE8EE390E0A0E086
:1010F000B0E056CE8FE390E0A0E0B0E051CE80E4C7
:1011000090E0A0E0B0E04CCE81E490E0A0E0B0E060
:1011100047CE82E490E0A0E0B0E042CE83E490E0ED
:10112000A0E0B0E03DCE84E490E0A0E0B0E038CEB6
:1011300085E490E0A0E0B0E033CE86E490E0A0E06B
:10114000B0E02ECE87E490E0A0E0B0E029CE88E4C5
:1011500090E0A0E0B0E024CE89E490E0A0E0B0E030
:101160001FCE8AE490E0A0E0B0E01ACE8BE490E0DD
:10117000A0E0B0E015CE8CE490E0A0E0B0E010CEAE
:101180006F30710508F01FCEFB01E753F74F0C9449
:10119000B029200ED808DD08E208E708EC08F108BD
:1011A000F608FB08000905090A090F0914091909BD
:1011B0008AE590E0A0E0B0E0F3CD89E590E0A0E022
:1011C000B0E0EECD88E590E0A0E0B0E0E9CD87E5C5
:1011D00090E0A0E0B0E0E4CD86E590E0A0E0B0E0F3
:1011E000DFCD85E590E0A0E0B0E0DACD84E590E0E9
:1011F000A0E0B0E0D5CD83E590E0A0E0B0E0D0CDB8
:1012000082E590E0A0E0B0E0CBCD81E590E0A0E009
:10121000B0E0C6CD80E590E0A0E0B0E0C1CD8FE4C5
:1012200090E0A0E0B0E0BCCD8EE490E0A0E0B0E0C3
:10123000B7CD8DE490E0A0E0B0E0B2CD6F307105A5
:1012400008F0C1CDFB01E95DF64F0C94B029260EE4
:1012500036093B0940094509E306E306E306E306D0
:10126000E3064A094F09540959095E098DE590E0E2
:10127000A0E0B0E095CD8EE590E0A0E0B0E090CDAC
:101280008FE590E0A0E0B0E08BCD80E690E0A0E0BC
:10129000B0E086CD8FE790E0A0E0B0E081CD80E8BF
:1012A00090E0A0E0B0E07CCD81E890E0A0E0B0E08C
:1012B00077CD82E890E0A0E0B0E072CD83E890E0E6
:1012C000A0E0B0E06DCD6F30710508F07CCDFB0182
:1012D000E459F64F0C94B0292C0E7B09800985093E
:1012E0008A09E306E306E306E306E3068F099409A9
:1012F00099099E09A30984E690E0A0E0B0E050CDF2
:1013000083E690E0A0E0B0E04BCD82E690E0A0E084
:10131000B0E046CD81E690E0A0E0B0E041CD88E8C5
:1013200090E0A0E0B0E03CCD87E890E0A0E0B0E045
:1013300037CD86E890E0A0E0B0E032CD85E890E0DF
:10134000A0E0B0E02DCD84E890E0A0E0B0E028CDB2
:101350006F30710508F037CDFB01EF54F64F0C9458
:10136000B029320EC009C509CA09CF09E306E30650
:10137000E306E306E306D409D909DE09E309E8092F
:1013800087E690E0A0E0B0E00BCD88E690E0A0E03A
:10139000B0E006CD89E690E0A0E0B0E001CD8AE6BD
:1013A00090E0A0E0B0E0FCCC89E890E0A0E0B0E004
:1013B000F7CC8AE890E0A0E0B0E0F2CC8BE890E0D7
:1013C000A0E0B0E0EDCC8CE890E0A0E0B0E0E8CCAC
:1013D0008DE890E0A0E0B0E0E3CC6F30710508F05C
:1013E000F2CCFB01EA50F64F0C94B029380E050AF6
:1013F0000A0A0F0A140AE306E306E306E306E30615
:10140000190A1E0A230A280A2D0A8EE690E0A0E097
:10141000B0E0C6CC8DE690E0A0E0B0E0C1CC8CE6B8
:1014200090E0A0E0B0E0BCCC8BE690E0A0E0B0E0C3
:10143000B7CC82E990E0A0E0B0E0B2CC81E990E0E6
:10144000A0E0B0E0ADCC80E990E0A0E0B0E0A8CCB6
:101450008FE890E0A0E0B0E0A3CC8EE890E0A0E0C0
:10146000B0E09ECC6F30710508F0ADCCFB01E55CBF
:10147000F54F0C94B0293E0E4A0A4F0A540A590AF5
:10148000E306E306E306E306E3065E0A630A680A88
:101490006D0A720A81E790E0A0E0B0E081CC82E7BB
:1014A00090E0A0E0B0E07CCC83E790E0A0E0B0E08A
:1014B00077CC84E790E0A0E0B0E072CC83E990E0E4
:1014C000A0E0B0E06DCC84E990E0A0E0B0E068CCB2
:1014D00085E990E0A0E0B0E063CC86E990E0A0E090
:1014E000B0E05ECC87E990E0A0E0B0E059CC6F308E
:1014F000710508F068CCFB01E058F54F0C94B02959
:10150000440E8F0A940A990A9E0AE306E306E3064C
:10151000E306E306A30AA80AAD0AB20AB70A88E7F7
:1015200090E0A0E0B0E03CCC87E790E0A0E0B0E045
:1015300037CC86E790E0A0E0B0E032CC85E790E0E1
:10154000A0E0B0E02DCC8CE990E0A0E0B0E028CCA9
:101550008BE990E0A0E0B0E023CC8AE990E0A0E045
:10156000B0E01ECC89E990E0A0E0B0E019CC88E9B9
:1015700090E0A0E0B0E014CC6F30710508F023CC0F
:10158000FB01EB53F54F0C94B0294A0ED40AD90A4B
:10159000DE0AE30AE306E306E306E306E306E80AF7
:1015A000ED0AF20AF70AFC0A8BE790E0A0E0B0E04F
:1015B000F7CB8CE790E0A0E0B0E0F2CB8DE790E0D5
:1015C000A0E0B0E0EDCB8EE790E0A0E0B0E0E8CBAB
:1015D0008DE990E0A0E0B0E0E3CB8EE990E0A0E000
:1015E000B0E0DECB8FE990E0A0E0B0E0D9CB80EABC
:1015F00090E0A0E0B0E0D4CB81EA90E0A0E0B0E0E1
:10160000CFCBFB013197EE30F10508F0DCCBE55F85
:10161000F44F0C94B029500E190B1E0B230B280B02
:101620002D0B320B370B3C0B410B460B4B0B500B6E
:10163000550B83EA90E0A0E0B0E0B2CB84EA90E002
:10164000A0E0B0E0ADCB85EA90E0A0E0B0E0A8CBB0
:1016500086EA90E0A0E0B0E0A3CB87EA90E0A0E0CB
:10166000B0E09ECB88EA90E0A0E0B0E099CB89EAB8
:1016700090E0A0E0B0E094CB8AEA90E0A0E0B0E097
:101680008FCB8BEA90E0A0E0B0E08ACB8CEA90E0D0
:10169000A0E0B0E085CB8DEA90E0A0E0B0E080CBA8
:1016A0008EEA90E0A0E0B0E07BCB8FEA90E0A0E093
:1016B000B0E076CBFB013297E131F10508F083CB46
:1016C000EC59F44F0C94B029560E750B7A0B7F0B26
:1016D000840B890B8E0B930B980B9D0BA20BA70B06
:1016E000AC0BB10BB60BBB0BC00B8FEB90E0A0E0CB
:1016F000B0E056CB8EEB90E0A0E0B0E051CB8DEBAC
:1017000090E0A0E0B0E04CCB8CEB90E0A0E0B0E04B
:1017100047CB8BEB90E0A0E0B0E042CB8AEB90E0CF
:10172000A0E0B0E03DCB89EB90E0A0E0B0E038CBAA
:1017300088EB90E0A0E0B0E033CB87EB90E0A0E056
:10174000B0E02ECB86EB90E0A0E0B0E029CB85EBBB
:1017500090E0A0E0B0E024CB84EB90E0A0E0B0E02B
:101760001FCB83EB90E0A0E0B0E01ACB82EB90E0DF
:10177000A0E0B0E015CB81EB90E0A0E0B0E010CBB2
:1017800080EB90E0A0E0B0E00BCBFB013197E231C1
:10179000F10508F018CBE153F44F0C94B0295C0E1E
:1017A000E10BE60BEB0BF00BF50BFA0BFF0B040C4C
:1017B000090C0E0C130C180C1D0C220C270C2C0CF5
:1017C000310C82EC90E0A0E0B0E0EACA83EC90E05B
:1017D000A0E0B0E0E5CA84EC90E0A0E0B0E0E0CAB0
:1017E00085EC90E0A0E0B0E0DBCA86EC90E0A0E001
:1017F000B0E0D6CA87EC90E0A0E0B0E0D1CA88ECB7
:1018000090E0A0E0B0E0CCCA89EC90E0A0E0B0E0CD
:10181000C7CA8AEC90E0A0E0B0E0C2CA8BEC90E0CE
:10182000A0E0B0E0BDCA8CEC90E0A0E0B0E0B8CAA7
:101830008DEC90E0A0E0B0E0B3CA8EEC90E0A0E0C8
:10184000B0E0AECA8FEC90E0A0E0B0E0A9CA80EDB5
:1018500090E0A0E0B0E0A4CA81ED90E0A0E0B0E0AC
:101860009FCA82ED90E0A0E0B0E09ACAFB013197F8
:10187000E331F10508F0A7CAE05CF34F0C94B029FE
:10188000620E530C580C5D0C620C670C6C0C710CE6
:10189000760C7B0C800C850C8A0C8F0C940C990CAC
:1018A0009E0CA30CA80C84EE90E0A0E0B0E078CAF7
:1018B00083EE90E0A0E0B0E073CA82EE90E0A0E09A
:1018C000B0E06ECA81EE90E0A0E0B0E069CA80EEC0
:1018D00090E0A0E0B0E064CA8FED90E0A0E0B0E05E
:1018E0005FCA8EED90E0A0E0B0E05ACA8DED90E0C6
:1018F000A0E0B0E055CA8CED90E0A0E0B0E050CAA6
:101900008BED90E0A0E0B0E04BCA8AED90E0A0E063
:10191000B0E046CA89ED90E0A0E0B0E041CA88EDB1
:1019200090E0A0E0B0E03CCA87ED90E0A0E0B0E03D
:1019300037CA86ED90E0A0E0B0E032CA85ED90E0D5
:10194000A0E0B0E02DCA84ED90E0A0E0B0E028CAAD
:1019500083ED90E0A0E0B0E023CAFB013197E431D1
:10196000F10508F030CAE954F34F0C94B029680E21
:10197000CB0CD00CD50CDA0CDF0CE40CE90CEE0C23
:10198000F30CF80CFD0C020D070D0C0D110D160DCE
:101990001B0D200D250D87EE90E0A0E0B0E000CA01
:1019A00088EE90E0A0E0B0E0FBC989EE90E0A0E016
:1019B000B0E0F6C98AEE90E0A0E0B0E0F1C98BEEAD
:1019C00090E0A0E0B0E0ECC98CEE90E0A0E0B0E0E8
:1019D000E7C98DEE90E0A0E0B0E0E2C98EEE90E0C5
:1019E000A0E0B0E0DDC98FEE90E0A0E0B0E0D8C9A3
:1019F00080EF90E0A0E0B0E0D3C981EF90E0A0E0FC
:101A0000B0E0CEC982EF90E0A0E0B0E0C9C983EFBA
:101A100090E0A0E0B0E0C4C984EF90E0A0E0B0E0C6
:101A2000BFC985EF90E0A0E0B0E0BAC986EF90E0D2
:101A3000A0E0B0E0B5C987EF90E0A0E0B0E0B0C9A9
:101A400088EF90E0A0E0B0E0ABC989EF90E0A0E0C3
:101A5000B0E0A6C9FB013197E331F10508F0B3C945
:101A6000EC5CF24F0C94B0296E0E470D4C0D510DED
:101A7000560D5B0D600D650D6A0DE306E306E3068A
:101A8000E306E306E3066F0D740D790D7E0D85E028
:101A900091E0A0E0B0E084C984E091E0A0E0B0E093
:101AA0007FC983E091E0A0E0B0E07AC982E091E0F4
:101AB000A0E0B0E075C981E091E0A0E0B0E070C9BD
:101AC00080E091E0A0E0B0E06BC98FEF90E0A0E093
:101AD000B0E066C98EEF90E0A0E0B0E061C98DEFA4
:101AE00090E0A0E0B0E05CC98CEF90E0A0E0B0E056
:101AF00057C98BEF90E0A0E0B0E052C98AEF90E0C8
:101B0000A0E0B0E04DC9FB013297E730F10508F0E5
:101B10005AC9E357F24F0C94B029740E940D9A0DE4
:101B2000A00DA60DAC0DB20D88E091E0A0E0B0E0F4
:101B30000C94D00689E091E0A0E0B0E00C94D006CF
:101B40008AE091E0A0E0B0E00C94D0068BE091E058
:101B5000A0E0B0E00C94D0068CE091E0A0E0B0E012
:101B60000C94D0068DE091E0A0E0B0E00C94D0069B
:101B700065307105F1F078F46330710509F4BAC08D
:101B80006430710511F00C94E30681E191E0A0E06E
:101B9000B0E00C94D0066630710589F067307105AD
:101BA00011F00C94E3068EE091E0A0E0B0E00C941C
:101BB000D00680E191E0A0E0B0E00C94D0068FE088
:101BC00091E0A0E0B0E00C94D0066530710571F0B2
:101BD0006630710589F06430710511F00C94E306EC
:101BE00083E191E0A0E0B0E00C94D00684E191E0C4
:101BF000A0E0B0E00C94D00685E191E0A0E0B0E078
:101C00000C94D00683E090E0A0E0B0E00C94D00605
:101C100080E190E0A0E0B0E00C94D00681E190E09B
:101C2000A0E0B0E00C94D00688E390E0A0E0B0E043
:101C30000C94D00689E390E0A0E0B0E00C94D006CC
:101C40008BE590E0A0E0B0E00C94D0068CE590E04D
:101C5000A0E0B0E00C94D00685E690E0A0E0B0E013
:101C60000C94D00686E690E0A0E0B0E00C94D0069C
:101C70008FE690E0A0E0B0E00C94D00680E790E022
:101C8000A0E0B0E00C94D00689E790E0A0E0B0E0DE
:101C90000C94D0068AE790E0A0E0B0E00C94D00667
:101CA00082EA90E0A0E0B0E00C94D00680EC90E0F6
:101CB000A0E0B0E00C94D00681EC90E0A0E0B0E0B1
:101CC0000C94D00685EE90E0A0E0B0E00C94D00635
:101CD00086EE90E0A0E0B0E00C94D00686E091E0C3
:101CE000A0E0B0E00C94D00687E091E0A0E0B0E086
:101CF0000C94D00682E191E0A0E0B0E00C94D00614
:101D0000CF93DF9397FD25C020916202309163024B
:101D100082179307F4F477FD1CC020916402309180
:101D2000650262177307ACF4AB01BC01C091690294
:101D3000D0916A0280E692E00E949E069B01220FEB
:101D4000331FC901860F971F8C0F9D1FDF91CF9105
:101D5000089586E692E0FACF2F923F924F925F92DB
:101D60006F927F928F929F92AF92BF92CF92DF92AB
:101D7000EF92FF920F931F93CF93DF93EC012B0110
:101D80006A0119017A01E81AF90A5901A61AB70A73
:101D90009701F7FE04C0222733272E193F09F501CA
:101DA000B7FE04C0EE27FF27EA19FB092E173F07ED
:101DB0000CF47EC0052C000C66087708320155240F
:101DC000442480E8580E611C711CE114F10431F5C3
:101DD000B301992777FD9095892FCE010E94800E3F
:101DE000FC01D8018C91808311968C91119781838D
:101DF00012968C918283DF91CF911F910F91FF906A
:101E0000EF90DF90CF90BF90AF909F908F907F909A
:101E10006F905F904F903F902F900895B501BB0C4D
:101E2000880B990BCB0177276627032E000C440BF8
:101E3000550B0E94F02649015A01F7FC1CC0CC1634
:101E4000DD06CCF2B301992777FD9095892FCE015D
:101E50000E94800EFC01D8018C91808311968C9198
:101E60001197818312968C9182832196480C591C7C
:101E70006A1C7B1CE4CFCC15DD050CF4BCCFB30190
:101E8000992777FD9095892FCE010E94800EFC0145
:101E9000D8018C91808311968C9111978183129631
:101EA0008C9182832197480C591C6A1C7B1CE3CFC0
:101EB000A701FF0C660B770BCA01772766279F01E6
:101EC000FF0F440B550B0E94F02669017A013E0179
:101ED000DD0F88089908430177246624B0E87B0E5B
:101EE000811C911CB7FC1BC0241435040CF483CF57
:101EF000B201C4010E94800EFC01D8018C91808344
:101F000011968C911197818312968C918283BFEFE9
:101F10004B1A5B0A6C0C7D1C8E1C9F1CE5CF421477
:101F200053040CF468CFB201C4010E94800EFC017E
:101F3000D8018C91808311968C9111978183129690
:101F40008C918283B1E04B1A51086C0C7D1C8E1C65
:101F50009F1CE5CF2F923F924F925F926F927F929C
:101F60008F929F92AF92BF92CF92DF92EF92FF92A9
:101F70000F931F93CF93DF93CDB7DEB729970FB69B
:101F8000F894DEBF0FBECDBF4C013B0179016A0161
:101F900081E090E02C01441A550AB12CA12CCA14FE
:101FA000DB040CF46AC0F7018081898381818A8314
:101FB00082818B83B3016A0D7B1D8E010F5F1F4FE2
:101FC0009B01C4018C199D099D838C83AC01160172
:101FD000280C391CC1010E94AC0EF7018081898355
:101FE00081818A8382818B83C4018A199B099987A5
:101FF0008887F501E80DF91DFF83EE83B601660DB4
:10200000771D9B01AC01CF010E94AC0EF7018081CE
:10201000898381818A8382818B83B3016A197B09D9
:102020009B01A1018C819D810E94AC0EF7018081F2
:10203000898381818A8382818B83B3016C197D09B5
:102040009B014E815F81888599850E94AC0EFFEFD0
:10205000AF1ABF0A57FC0CC081E0C81AD108C501ED
:102060008C199D090196880F991F480E591E97CF0C
:10207000C501880F991F0196F8CF29960FB6F894DD
:10208000DEBF0FBECDBFDF91CF911F910F91FF90AB
:10209000EF90DF90CF90BF90AF909F908F907F9008
:1020A0006F905F904F903F902F9008958F929F92E6
:1020B000AF92BF92CF92DF92EF92FF920F931F9356
:1020C000CF93DF9300D01F92CDB7DEB75C014B01F9
:1020D0006A01F12CE12CF6018081898381818A8358
:1020E00082818B838E010F5F1F4F9701A401B7017F
:1020F000C5010E94AC0EFFEFEF1AFF0A88E1E81657
:10210000F10449F70F900F900F90DF91CF911F913D
:102110000F91FF90EF90DF90CF90BF90AF909F9086
:102120008F900895AF92BF92CF92DF92EF92FF927D
:102130000F931F93CF93DF93809164029091650278
:10214000AC014F5F5F4F97FDCA017C01F594E794A6
:1021500081E0E81AF10857FF02C04F5F5F4F8A0124
:1021600015950795F7FC34C0A0906202B090630209
:1021700081E0A81AB108B7FC25C0C0906902D090D0
:102180006A02A701B50180E692E00E949E06EB017B
:10219000CC0FDD1FC60FD71FCC0DDD1DA801B5016B
:1021A00080E692E00E949E06FB01EE0FFF1FE60F05
:1021B000F71FEC0DFD1D88818083898181838A81D1
:1021C0008283D6CF81E0E81AF1080F5F1F4FCACF94
:1021D000DF91CF911F910F91FF90EF90DF90CF9003
:1021E000BF90AF900895AF92BF92CF92DF92EF92DF
:1021F000FF920F931F93CF93DF93C0916402D0910E
:102200006502882311F0219704C0D7FD2196D5954A
:10221000C795D7FD42C00091620210916302C801C8
:1022200001967C0197FF03C02FEFE21AF20AF594A2
:10223000E79417FD8C01159507950150110917FDBD
:10224000E2CFA0906902B0906A02AE01B80180E6C8
:1022500092E00E949E066B01CC0CDD1CC60ED71EC0
:10226000CA0CDB1CAE01B70180E692E00E949E061C
:10227000FB01EE0FFF1FE60FF71FEA0DFB1DD60156
:102280008C91808311968C911197818312968C91F9
:102290008283BFEFEB1AFB0AD0CFDF91CF911F9162
:1022A0000F91FF90EF90DF90CF90BF90AF90089587
:1022B00080E00E94F3100C9492106F927F928F92A4
:1022C0009F92AF92BF92CF92DF92EF92FF920F93C5
:1022D0001F93CF93DF93C0916202D091630220914C
:1022E0006402309165022C173D070CF4E901219737
:1022F000811104C0D7FD2196D595C7955E01D12CDB
:10230000C12CCC16DD06DCF5450135016C0C7D1CBD
:1023100081E0881A910897FC2BC0E0906902F09048
:102320006A02A601B40180E692E00E949E068B013B
:10233000000F111F060F171F0E0D1F1DA3014819B7
:102340005909B50180E692E00E949E06FB01EE0F5E
:10235000FF1FE60FF71FEE0DFF1DD8018C91808344
:1023600011968C911197818312968C918283D0CF94
:10237000B1E0AB1AB1088FEFC81AD80AC2CFDF910B
:10238000CF911F910F91FF90EF90DF90CF90BF9072
:10239000AF909F908F907F906F900895AF92BF9273
:1023A000CF92DF92EF92FF920F931F93CF93DF9321
:1023B000C0916202D0916302209164023091650263
:1023C0002C173D070CF4E9012197811104C0D7FDBA
:1023D0002196D595C79501E010E0C017D1079CF173
:1023E000F12CE12CA0906902B0906A02A801B7011B
:1023F00080E692E00E949E066B01CC0CDD1CC60EAE
:10240000D71ECA0CDB1CA701B80180E692E00E942F
:102410009E06FB01EE0FFF1FE60FF71FEA0DFB1DE7
:10242000D6018C91808311968C911197818312969D
:102430008C918283BFEFEB1AFB0A0E151F0591F6F4
:102440000F5F1F4FCACFDF91CF911F910F91FF9068
:10245000EF90DF90CF90BF90AF9008954F925F9232
:102460006F927F928F92AF92BF92CF92DF92EF9254
:102470000F931F93CF93DF933C01EB010E94330234
:10248000F30127853089621B730B6A307105B0F345
:10249000F894E881F9817BB178606BB1677F6BB9A3
:1024A000CA848F812C2D281B822F2F83BF844A80C2
:1024B0005B801D850C85DE841F5F0F5FD3949E813A
:1024C0003885A984EB844181D20120E0C32F522FAB
:1024D000322F3181442788943111380F08F43FEFAF
:1024E0008195889410FD430F4795889411FD430F03
:1024F0004795889412FD430F4795889413FD430F29
:102500004795889414FD430F4795889415FD430F14
:102510004795889416FD430F4795889417FD430F00
:1025200047958894232F1111242F8C0D422F002CB6
:102530007BB900C047FF6BB930812227889400C067
:1025400000C0002C6BB93111390F00C0002C7BB9D1
:1025500000C046FF6BB908F43FEF9195889400C026
:1025600000C0002C6BB900FD230F00C0002C7BB90C
:1025700000C045FF6BB92795889401FD230F00C06B
:1025800000C0002C6BB92795889400C0002C7BB943
:1025900000C044FF6BB902FD230F2795889400C04B
:1025A00000C0002C6BB903FD230F00C0002C7BB9C9
:1025B00000C043FF6BB92795889404FD230F00C02A
:1025C00000C0002C6BB92795889400C0002C7BB903
:1025D00000C042FF6BB905FD230F2795889400C00A
:1025E00000C0002C6BB906FD230F00C0002C7BB986
:1025F00000C041FF6BB92795889407FD230F00C0E9
:1026000000C0002C6BB92795889400C0002C7BB9C2
:1026100000C040FF6BB9432F0111422F9A0D00C03B
:1026200000C0002C6BB900C000C0002C7BB900C0FA
:1026300047FF6BB932812227889400C000C0002C6C
:102640006BB931113C0F00C0002C7BB900C046FFB4
:102650006BB908F43FEFEB0DF11D00C000C0002C7A
:102660006BB9D0FC230F00C0002C7BB900C045FF24
:102670006BB927958894D1FC230F00C000C0002CB3
:102680006BB92795889400C0002C7BB900C044FF2B
:102690006BB9D2FC230F2795889400C000C0002C92
:1026A0006BB9D3FC230F00C0002C7BB900C043FFE3
:1026B0006BB927958894D4FC230F00C000C0002C70
:1026C0006BB92795889400C0002C7BB900C042FFED
:1026D0006BB9D5FC230F2795889400C000C0002C4F
:1026E0006BB9D6FC230F00C0002C7BB900C041FFA2
:1026F0006BB927958894D7FC230F00C000C0002C2D
:102700006BB92795889400C0002C7BB900C040FFAE
:102710006BB9432FD110422FC19500C000C0002CCF
:102720006BB9CE0D00C000C07BB900C047FF6BB9CC
:1027300031812227889400C000C0002C6BB9311170
:10274000380F00C0002C7BB900C046FF6BB908F4FD
:102750003FEF8195889400C000C0002C6BB910FD3C
:10276000230F00C0002C7BB900C045FF6BB9279533
:10277000889411FD230F00C000C0002C6BB9279571
:10278000889400C0002C7BB900C044FF6BB912FDD7
:10279000230F2795889400C000C0002C6BB913FD4F
:1027A000230F00C0002C7BB900C043FF6BB92795F5
:1027B000889414FD230F00C000C0002C6BB927952E
:1027C000889400C0002C7BB900C042FF6BB915FD96
:1027D000230F2795889400C000C0002C6BB916FD0C
:1027E000230F00C0002C7BB900C041FF6BB92795B7
:1027F000889417FD230F00C000C0002C6BB92795EB
:10280000889400C0002C7BB900C040FF6BB9432FF7
:102810001111422F8C0D00C000C0002C6BB9119714
:1028200009F086CE20EE31E0D2010E94B629DC010B
:10283000CB01F4E0B695A79597958795FA95D1F7D2
:1028400030E020E0B901EAE94E9E040C611D5E9E75
:10285000600D711D1124650D711D860F971FA11D3F
:10286000B11D893E43E09407A105B10508F434C0C9
:10287000885E9340A109B10942E0B695A795979566
:1028800087954A95D1F747E0849F080E211D949FB4
:10289000200D311D1124290F311D60916F0170E051
:1028A000860F971F820F931F4091960150919701B9
:1028B0006091980170919901292F3327420F531F7E
:1028C000611D711D4093960150939701609398018B
:1028D0007093990180936F0178940E943302F30101
:1028E000708B6787DF91CF911F910F91EF90DF90F1
:1028F000CF90BF90AF908F907F906F905F904F90F0
:102900000895539A08950F931F93CF93DF93CDB7F4
:10291000DEB762970FB6F894DEBF0FBECDBF8C0155
:10292000F901DC011C968C917A8369835C834B836B
:102930005E834D8390819D8791819E8792819F8741
:102940008130F1F4CE0101960E94610683E0888B0C
:102950001A8A198AD801ED91FC910484F585E02D3D
:10296000BE016F5F7F4FC801099562960FB6F8945C
:10297000DEBF0FBECDBFDF91CF911F910F910895A4
:102980001C861B861A86198618861F82DFCF0F9336
:102990001F93CF93DF93CDB7DEB762970FB6F8944E
:1029A000DEBF0FBECDBF8C01F901DC011C968C91FE
:1029B0007A8369835C834B835E834D8390819D879B
:1029C00091819E8792819F878130E9F4CE010196A3
:1029D0000E946106188A1A8A198AD801ED91FC9121
:1029E0000484F585E02DBE016F5F7F4FC801099516
:1029F00062960FB6F894DEBF0FBECDBFDF91CF91C8
:102A00001F910F9108951C861B861A8619861886B9
:102A10001F82E0CFCF92DF92EF92FF920F931F932E
:102A2000CF93DF9300D01F92CDB7DEB77C01162F76
:102A30008091A20181112AC081E00E94CB03B701DD
:102A400090E080E00E9468282DEC3CEC4CE750E4DC
:102A50000E94C0276B017C0120E030E0A9010E94A8
:102A6000F62820E030E040E05FE387FD73C0C70157
:102A7000B6010E9454270E9432287093A1016093EE
:102A8000A00110939F0181E08093A2010DEF1FEF41
:102A9000FF24FA94F9821A821B82B8016E5F7F4F7D
:102AA000AE014F5F5F4FC80101970E945610F98237
:102AB000FA82FB8268018FEFC81AD80AAE014F5F15
:102AC0005F4FB601C8010E94561019821A821B82FC
:102AD000B80162507109AE014F5F5F4FC8010597A1
:102AE0000E9456100E94E30386010731110591F6FA
:102AF00004E110E0DD24DA94D9821A821B82780185
:102B000082E0E80EF11CAE014F5F5F4FB701C801D4
:102B10000E94561019821A821B82B8016C5F7F4F87
:102B2000AE014F5F5F4FC7010E9456100E94E30342
:102B3000015011090D3F8FEF1807F1F60F900F901C
:102B40000F90DF91CF911F910F91FF90EF90DF9049
:102B5000CF900895C701B6010E9453278CCF90E013
:102B600080E00895FC01858596850895CF93DF93D5
:102B700000D000D000D0CDB7DEB7AB011C821D82E3
:102B80001E82DC01ED91FC910190F081E02D198213
:102B90001A821B829E012F5F3F4FBE016C5F7F4FE9
:102BA000099526960FB6F894DEBF0FBECDBFDF9114
:102BB000CF910895CF93DF93FC0101900020E9F7B6
:102BC0003197AF01481B590BBC018FEA91E00E947D
:102BD0005305EC0142E050E06AE471E08FEA91E0D5
:102BE0000E9453058C0F9D1FDF91CF9108952F9266
:102BF0003F924F925F926F927F928F929F92AF928D
:102C0000BF92CF92DF92EF92FF920F931F93CF93D9
:102C1000DF93CDB7DEB72D970FB6F894DEBF0FBEAA
:102C2000CDBF7C01162F8091A20181112AC081E0C5
:102C30000E94CB03B70190E080E00E94682820E06A
:102C400030E040E150E40E94C0276B017C0120E0AD
:102C500030E0A9010E94F62820E030E040E05FE388
:102C600087FD4AC0C701B6010E9454270E9432283E
:102C70007093A1016093A00110939F0181E0809364
:102C8000A2010E940302C0906A01E0906801F090E6
:102C90006901DC2CDD0CDD0CDD0C9C2CB12CA12C95
:102CA00055E5752E612C6BEA862E7AEA572E25E6BD
:102CB000E21624E0F2060CF440C080916402909188
:102CC0006502A816B9060CF0E3C02D2D372D239F01
:102CD000020E20E0211D1124822F292D2074992D10
:102CE000907297FCB5C021119FC091117FC0282F11
:102CF0002095382F822F7EC0C701B6010E9453272E
:102D0000B5CF35E5380F90E08BEA89833A839B8312
:102D1000BF01615071098E010F5F1F4F30E020E04D
:102D2000A501C5018E1B9F0B0E94AC0E80E1980E81
:102D30009FEFA91AB90AA0E8DA0EE0916402F091B7
:102D4000650280916202909163028E0F9F1FA81608
:102D5000B9060CF09DC02D2D372D239F020E20E0CB
:102D6000211D1124822F292D2074992D907297FCFA
:102D70001DC0211107C09111C4CF282F2095382FD5
:102D8000822FC3CF91110DC02D2D352D239F020E03
:102D900020E0211D1124A82DA21B2A2F3AEA380F6A
:102DA000EFCF382F3095982F80E0AFCF211112C090
:102DB00091110CC02D2D352D239F020E20E0211DD9
:102DC0001124382D321B95E5920FEECF982F909558
:102DD00030E09BCF911106C025E5280F982D981B58
:102DE000822FF6CF2AEA280F972DF9CF35E5380F35
:102DF00090E08BEA89833A839B83409162025091F1
:102E00006302415051098E010F5F1F4F9501B501BB
:102E100090E080E00E94AC0E80E1980E9FEFA91A2E
:102E2000B90AA0E8DA0E49CF91110DC02D2D352D2C
:102E3000239F020E20E0211D1124A82DA21B2A2F62
:102E40003AEA380F57CF382F3095982F80E0D2CFFD
:102E5000211112C091110CC02D2D352D239F020E72
:102E600020E0211D1124382D321B95E5920FEECF65
:102E7000982F909530E0BECF911106C025E5280F20
:102E8000982D981B822FF6CF2AEA280F972DF9CF7D
:102E900084E08C0D80936A01B7E7EB16B1E0FB0686
:102EA0005CF581E00E94F3109FEFE91AF90AAAECA1
:102EB000EA16A8E0FA060CF018C1F0926901E09257
:102EC00068010E94E3032D960FB6F894DEBF0FBE93
:102ED000CDBFDF91CF911F910F91FF90EF90DF90C9
:102EE000CF90BF90AF909F908F907F906F905F90AA
:102EF0004F903F902F90089521E7E21622E0F206CE
:102F00001CF40E949210D0CF3BE6E31633E0F306A8
:102F10001CF40E945811C8CF85E6E81684E0F80634
:102F20000CF0BEC080916402909165022090620214
:102F300030906302821593050CF41C01C10137FC2B
:102F40000196DC01B595A795B987A887B1E02B1A42
:102F50003108C10162E070E00E949C296884798494
:102F6000681A790A2618370828853985260D371DED
:102F70003F832E8323011D821C823D862C8657FCB5
:102F800093CF5301912C812CB7FC79C0A501B201DC
:102F900080E692E00E949E06C0906902D0906A028C
:102FA0008B01000F111FD801A60FB71FBB87AA877F
:102FB0008D010C0D1D1D688579856A0D7B1D4C8169
:102FC0005D8180E692E00E949E06FB01EE0FFF1FEE
:102FD000E60FF71FEC0DFD1DD8018C918083119633
:102FE0008C911197818312968C9182830091690252
:102FF00010916A02CA84DB84C00ED11E4C855D85A7
:10300000480D591DB10180E692E00E949E06FB0129
:10301000EE0FFF1FE60FF71FE00FF11FD6018C9197
:10302000808311968C911197818312968C91828363
:10303000C0906902D0906A020A851B850C0D1D1D87
:103040004E815F81B40180E692E00E949E06FB0102
:10305000EE0FFF1FE60FF71FEC0DFD1DD8018C9141
:10306000808311968C911197818312968C91828323
:10307000B1E0AB1AB1082FEF821A920A85CF31E086
:10308000431A51088C819D8101969D838C839FEF0B
:10309000291A390AAE81BF811197BF83AE836FCFE2
:1030A000BCEDEB16B5E0FB0624F481E00E94CE11E6
:1030B000FBCE26EDE21626E0F20624F481E00E9423
:1030C0005D11F2CE30EDE31637E0F30624F480E034
:1030D0000E94CE111ECF8AECE81688E0F8060CF0AC
:1030E000E3CE80E00E945D1114CF1092690110922E
:1030F0006801E7CE2F923F924F925F926F927F923C
:103100008F929F92AF92BF92CF92DF92EF92FF92F7
:103110000F931F93CF93DF93CDB7DEB72B970FB6E7
:10312000F894DEBF0FBECDBF7C01B62E8091A20108
:1031300081112AC081E00E94CB03B70190E080E0BA
:103140000E94682823E333E34BEB50E40E94C0273E
:103150006B017C0120E030E0A9010E94F62820E00C
:1031600030E040E05FE387FDC2C0C701B6010E94C6
:1031700054270E9432287093A1016093A001B0925D
:103180009F0181E08093A201F12CE12CCC24CA9410
:103190000E940302A090590250905A0240905B0294
:1031A00049825A82AB82C7010A969F838E838AE046
:1031B00090E08E199F099D838C838E010F5F1F4FB6
:1031C00026E130E04E815F8170E060E00E94AC0E4D
:1031D000D0906601B0906701B982CA82DB82170184
:1031E0009BE0290E311C8BE090E08E199F09998796
:1031F000888726E130E0A10170E060E00E94AC0E1B
:1032000049825A82AB8286E1882E912CC4018E19A4
:103210009F099B878A8737019FEF691A790A2A8558
:103220003B8545E150E0B30190E080E00E94AC0EA8
:10323000B982CA82DB8286189708940145E150E082
:10324000B70190E080E00E94AC0E49825A82AB82C6
:103250002885398545E150E0B10190E080E00E9489
:10326000AC0EB982CA82DB822C813D8145E150E0FF
:103270006E817F8190E080E00E94AC0E49825A828C
:10328000AB8230E020E04A855B8566E170E0C701F3
:103290000E94AC0EB982CA82DB8230E020E0A40139
:1032A00066E170E0C70101970E94AC0E0E94E30343
:1032B00073018AE06816710409F06ACF2B960FB685
:1032C000F894DEBF0FBECDBFDF91CF911F910F915C
:1032D000FF90EF90DF90CF90BF90AF909F908F9036
:1032E0007F906F905F904F903F902F900895C7010F
:1032F000B6010E9453273DCF0E94F62ACF92DF925B
:10330000EF92FF926B017C01C114D104E104F1043E
:1033100041F00E949826A70196010E94F0266B01B9
:103320007C01C701B601FF90EF90DF90CF90089528
:1033300063E070E080E090E00E947E19DC01CB0148
:103340000196A11DB11D8230910529F0039731F03E
:1033500090E080E008958FE790E008958FEF90E08F
:103360000895CF93C82F10926E0110926D010E94A4
:103370008E0260935C0270935D0280935E02909374
:103380005F0210926C0110926B0110926A01109210
:103390006901109268018FEF80935B020E94981977
:1033A00080935A028FE7809359020E949819809364
:1033B00067010E94981980936601C0939001109252
:1033C0008F011092A20181E0CF910C94CB032F9238
:1033D0003F924F925F926F927F928F929F92AF92A5
:1033E000BF92CF92DF92EF92FF920F931F93CF93F2
:1033F000DF938C01C62F8091A20181112AC081E048
:103400000E94CB03B80190E080E00E9468282AE97E
:1034100039E949E050E40E94C0276B017C0120E0BB
:1034200030E0A9010E94F62820E030E040E05FE3B0
:1034300087FD24C0C701B6010E9454270E9432288C
:103440007093A1016093A001C0939F0181E08093DC
:10345000A201D0E0C0E00E940302FE013197E830F3
:10346000F10588F4EA5CF54E0C94B029951AB71A68
:10347000D91AFB1A1D1B3F1B611B831BC701B60119
:103480000E945327DBCF00EC12E0F801E590F490A6
:103490000E949819D82E0E949819C82E0E94981937
:1034A000F701EE0FFF1FEE0EFF1EE0916902F09193
:1034B0006A02EE0DFF1D8083C182D2820E5F1F4F14
:1034C00083E00C35180709F70E94E3032196C93001
:1034D000D10509F0C0CFC8E0D0E01CEC412E10E0CF
:1034E000512E0EE3602E01E0702E8EE7E82E81E073
:1034F000F82E98ECC92E91E0D92E20ECA22E22E0D5
:10350000B22E0E9403022197C830D10508F01DC1D8
:10351000FE01E357F54E0C94B029E01B011C231C5F
:10352000441C651C861CA81CC91C04E312E0F8019D
:10353000E590F4900E949819D82E0E949819C82EF0
:103540000E949819F701EE0FFF1FEE0EFF1EE0918B
:103550006902F0916A02EE0DFF1D8083C182D28262
:103560000E5F1F4F92E0003C190709F7ADCF08EC42
:1035700011E0F801E590F4900E949819D82E0E946D
:103580009819C82E0E949819F701EE0FFF1FEE0E32
:10359000FF1EE0916902F0916A02EE0DFF1D80832B
:1035A000C182D2820E5F1F4F82E00433180709F7F1
:1035B0008BCF0EE711E0F801E590F4900E94981986
:1035C000D82E0E949819C82E0E949819F701EE0F64
:1035D000FF1FEE0EFF1EE0916902F0916A02EE0DF0
:1035E000FF1D8083C182D2820E5F1F4F91E0083C95
:1035F000190709F769CF0EE311E0F801E590F4909F
:103600000E949819D82E0E949819C82E0E949819C5
:10361000F701EE0FFF1FEE0EFF1EE0916902F09121
:103620006A02EE0DFF1D8083C182D2820E5F1F4FA2
:1036300081E00E37180709F747CF02E011E0F801E3
:10364000E590F4900E949819D82E0E949819C82EDF
:103650000E949819F701EE0FFF1FEE0EFF1EE0917A
:103660006902F0916A02EE0DFF1D8083C182D28251
:103670000E5F1F4F91E00E33190709F725CF0CECB1
:1036800010E0F801E590F4900E949819D82E0E945D
:103690009819C82E0E949819F701EE0FFF1FEE0E21
:1036A000FF1EE0916902F0916A02EE0DFF1D80831A
:1036B000C182D2820E5F1F4F81E00230180709F7E6
:1036C00003CF08E910E0F801E590F4900E94981902
:1036D000D82E0E949819C82E0E949819F701EE0F53
:1036E000FF1FEE0EFF1EE0916902F0916A02EE0DDF
:1036F000FF1D8083C182D2820E5F1F4F90E00C3C81
:10370000190709F7E1CE08E610E0F801E590F4901A
:103710000E949819D82E0E949819C82E0E949819B4
:10372000F701EE0FFF1FEE0EFF1EE0916902F09110
:103730006A02EE0DFF1D8083C182D2820E5F1F4F91
:1037400080E00839180709F7BFCE00EC12E0F80155
:10375000859094900E949819382E0E949819282ECE
:103760000E949819F401EE0FFF1F8E0E9F1EE0912C
:103770006902F0916A02E80DF91D8083218232828C
:103780000E5F1F4F8CE593E08017910701F70E94B1
:10379000E303CF3FDC0709F0B4CEDF91CF911F9157
:1037A0000F91FF90EF90DF90CF90BF90AF909F90E0
:1037B0008F907F906F905F904F903F902F900895E3
:1037C00004E312E0F801859094900E949819382E35
:1037D0000E949819282E0E949819F401EE0FFF1FDD
:1037E0008E0E9F1EE0916902F0916A02E80DF91DAC
:1037F0008083218232820E5F1F4FA016B10611F71F
:10380000C6CF08EC11E0F801859094900E949819B9
:10381000382E0E949819282E0E949819F401EE0F54
:10382000FF1F8E0E9F1EE0916902F0916A02E80D63
:10383000F91D8083218232820E5F1F4F92E0043394
:10384000190709F7A4CF0EE711E0F80185909490CD
:103850000E949819382E0E949819282E0E949819B3
:10386000F401EE0FFF1F8E0E9F1EE0916902F09192
:103870006A02E80DF91D8083218232820E5F1F4F9C
:10388000C016D10611F783CF0EE311E0F801859041
:1038900094900E949819382E0E949819282E0E9400
:1038A0009819F401EE0FFF1F8E0E9F1EE091690222
:1038B000F0916A02E80DF91D8083218232820E5F49
:1038C0001F4FE016F10611F762CF02E011E0F80198
:1038D000859094900E949819382E0E949819282E4D
:1038E0000E949819F401EE0FFF1F8E0E9F1EE091AB
:1038F0006902F0916A02E80DF91D8083218232820B
:103900000E5F1F4F6016710611F741CF0CEC10E0EF
:10391000F801859094900E949819382E0E94981969
:10392000282E0E949819F401EE0FFF1F8E0E9F1E85
:10393000E0916902F0916A02E80DF91D808321820D
:1039400032820E5F1F4F81E00230180709F71FCF48
:1039500008E910E0F801859094900E949819382E9B
:103960000E949819282E0E949819F401EE0FFF1F4B
:103970008E0E9F1EE0916902F0916A02E80DF91D1A
:103980008083218232820E5F1F4F4016510611F74D
:10399000FECE08E610E0F801859094900E949819F8
:1039A000382E0E949819282E0E949819F401EE0FC3
:1039B000FF1F8E0E9F1EE0916902F0916A02E80DD2
:1039C000F91D8083218232820E5F1F4F88E990E0CB
:1039D0008017910701F7DBCE8F929F92AF92BF9233
:1039E000CF92DF92EF92FF920F931F93CF93DF93CB
:1039F00000D01F92CDB7DEB75C01D62E7A01809140
:103A0000A20181112AC081E00E94CB03B50190E0A0
:103A100080E00E94682826E636E646E85FE30E94DA
:103A2000C0274B015C0120E030E0A9010E94F6288C
:103A300020E030E040E05FE387FDA8C0C501B401AD
:103A40000E9454270E9432287093A1016093A00124
:103A5000D0929F0181E08093A2010E948E0280900B
:103A60005C0290905D02A0905E02B0905F02AB019C
:103A7000BC01481959096A097B09C701B0E0A0E0F7
:103A800084179507A607B70708F070C065E170E0D6
:103A900080E090E00E947E19C62E65E170E080E033
:103AA00090E00E947E19E62E0E94981980935B0296
:103AB0000E94981980935A020E9498198093590283
:103AC00090915B02911112C090915A0291110EC017
:103AD00081110CC00E94981980935B020E94981972
:103AE00080935A020E949819809359020E940302FF
:103AF000B0905902A0905A0290905B029982AA82DB
:103B0000BB82F12CD12CA701415051098E010F5FCE
:103B10001F4F26E130E070E060E0C60101970E948F
:103B2000AC0E9982AA82BB8226E130E0A70170E048
:103B300060E0C6010E94AC0E9982AA82BB82A701F6
:103B40004F5F5F4F26E130E070E060E0C601019614
:103B50000E94AC0E0E94E3030E948E0260935C02FE
:103B600070935D0280935E0290935F020F900F90BE
:103B70000F90DF91CF911F910F91FF90EF90DF9009
:103B8000CF90BF90AF909F908F900895C501B401E2
:103B90000E94532757CF8F929F92AF92BF92CF929E
:103BA000DF92EF92FF920F931F93CF93DF9300D09A
:103BB0001F92CDB7DEB76C01F62E8A018091A2016B
:103BC000811124C081E00E94CB03B60190E080E027
:103BD0000E9468284B015C0120E030E0A9010E94AE
:103BE000F62820E030E040E05FE387FD6DC0C501CE
:103BF000B4010E9454270E9432287093A10160935F
:103C0000A001F0929F0181E08093A2010E948E02A8
:103C1000C0905C02D0905D02E0905E02F0905F0286
:103C20006C197D098E099F0930E020E006171707FF
:103C300028073907C8F50E949819182F0E9498196B
:103C4000082F0E94981989830A831B8367E070E01C
:103C500080E090E00E947E196B017C0166E170E0DB
:103C600080E090E00E947E194B0165E170E080E009
:103C700090E00E947E19CB01B701A6014D5F5F4F16
:103C80006F4F7F4F9E012F5F3F4FB4010E94AA0FDD
:103C90000E94E3030E948E0260935C0270935D02B7
:103CA00080935E0290935F020F900F900F90DF91D0
:103CB000CF911F910F91FF90EF90DF90CF90BF9029
:103CC000AF909F908F900895C501B4010E94532733
:103CD00092CF8F929F92AF92BF92FF920F931F93BA
:103CE000CF93DF9300D01F92CDB7DEB75C01F62EE5
:103CF0008A018091A201811124C081E00E94CB033E
:103D0000B50190E080E00E9468284B015C0120E052
:103D100030E0A9010E94F62820E030E040E05FE3B7
:103D200087FD6CC0C501B4010E9454270E9432284F
:103D30007093A1016093A001F0929F0181E08093B4
:103D4000A2010E948E0280905C0290905D02A09081
:103D50005E02B0905F02681979098A099B0930E018
:103D600020E00617170728073907D8F50E94981989
:103D700080935B020E94981980935A020E949819BE
:103D80008093590290915B02911112C090915A0256
:103D900091110EC081110CC00E94981980935B0292
:103DA0000E94981980935A020E9498198093590290
:103DB0008091590290915A0220915B0229839A8343
:103DC0008B8360914C02CE0101960E94E7020E9413
:103DD0008E0260935C0270935D0280935E0290930A
:103DE0005F020F900F900F90DF91CF911F910F9175
:103DF000FF90BF90AF909F908F900895C501B40140
:103E00000E94532793CFCF92DF92EF92FF92CF93EE
:103E1000DF937C01C62F8091A20181112AC081E02D
:103E20000E94CB03B70190E080E00E94682826E65C
:103E300036E64AE151E40E94C0276B017C0120E094
:103E400030E0A9010E94F62820E030E040E05FE386
:103E500087FD39C0C701B6010E9454270E9432284D
:103E60007093A1016093A001C0939F0181E08093B2
:103E7000A2010E9403028FEF80934C020E949819C6
:103E8000F82E0E949819E82E0E949819D82EC091F9
:103E90006902D0916A0266E171E080E090E00E94E0
:103EA0007E19FB01EE0FFF1F6E0F7F1FC60FD71F7E
:103EB000D882E982FA82DF91CF91FF90EF90DF9074
:103EC000CF900C94E303C701B6010E945327C6CFDD
:103ED000CF92DF92EF92FF92CF93DF937C01C62FB8
:103EE0008091A20181112AC081E00E94CB03B70119
:103EF00090E080E00E94682820E030E040E151E45A
:103F00000E94C0276B017C0120E030E0A9010E94E3
:103F1000F62820E030E040E05FE387FDA6C0C7015F
:103F2000B6010E9454270E9432287093A101609329
:103F3000A001C0939F0181E08093A20180916B0159
:103F400090916C01892B61F40E94981980935B0217
:103F50000E94981980935A020E94981980935902DE
:103F6000F0905902E0905A02D0905B02C091690231
:103F7000D0916A0266E171E080E090E00E947E19D3
:103F8000FB01EE0FFF1F6E0F7F1FC60FD71FD882DA
:103F9000E982FA8263E070E080E090E00E947E199E
:103FA0006130710581059105A1F4C0916902D0913C
:103FB0006A0266E171E080E090E00E947E19FB01F8
:103FC000EE0FFF1F6E0F7F1FC60FD71F18821982BB
:103FD0001A820E94E3030E948E02C0905C02D0907D
:103FE0005D02E0905E02F0905F026C197D098E091F
:103FF0009F0969397A438105910580F184E00E9427
:104000001F02BC01990F880B990B61157105810581
:10401000910511F00E94E72680916B0190916C014F
:1040200001968430910531F190936C0180936B017E
:104030000E94981980935B020E94981980935A02FB
:104040000E949819809359020E948E0260935C022C
:1040500070935D0280935E0290935F02DF91CF9137
:10406000FF90EF90DF90CF900895C701B6010E94B6
:10407000532759CF81E090E0D7CF1F920F920FB610
:104080000F9211242F933F938F939F93AF93BF93DE
:104090008091960190919701A0919801B09199011A
:1040A0003091950123E0230F2D3758F50196A11D7E
:1040B000B11D209395018093960190939701A09351
:1040C0009801B093990180919A0190919B01A091E0
:1040D0009C01B0919D010196A11DB11D80939A0193
:1040E00090939B01A0939C01B0939D01BF91AF91D0
:1040F0009F918F913F912F910F900FBE0F901F9026
:10410000189526E8230F0296A11DB11DD2CF1F924C
:104110000F920FB60F9211242F933F934F935F93FB
:104120006F937F938F939F93AF93BF93EF93FF937F
:104130008FEA91E00E94D105FF91EF91BF91AF917D
:104140009F918F917F916F915F914F913F912F91AF
:104150000F900FBE0F901F9018951F920F920FB6E1
:104160000F9211242F938F939F93EF93FF93E091DE
:10417000BF01F091C0018081E091C501F091C601BD
:1041800082FD1BC090818091C8018F5F8F73209149
:10419000C901821741F0E091C801F0E0E155FE4FFE
:1041A000958F8093C801FF91EF919F918F912F91EF
:1041B0000F900FBE0F901F9018958081F4CF1F9223
:1041C0000F920FB60F9211240F900FBE0F901F90F9
:1041D00018951F920F920FB60F9211242F933F93B1
:1041E0008F939F93109285001092840080916D01AF
:1041F00090916E01019690936E0180936D01809174
:10420000930190919401019690939401809393016E
:1042100020916D0130916E018091A0019091A101DA
:104220002817390750F080919F0180938F011092D9
:104230006E0110926D011092A2019F918F913F919A
:104240002F910F900FBE0F901F901895FC018EE0DC
:1042500091E0909361028093600284E191E0918308
:1042600080838CE291E09687858786E190E0938356
:10427000828387E190E0958384838EEE95E00E94AF
:10428000D12990936C0280936B0290936A02809381
:104290006902892BD1F5E091BF01F091C00182E064
:1042A0008083E091BB01F091BC011082E091BD01DF
:1042B000F091BE0180E180831092C701E091C301BB
:1042C000F091C40186E08083E091C101F091C201C8
:1042D000808180618083E091C101F091C201808181
:1042E00088608083E091C101F091C2018081806883
:1042F0008083E091C101F091C20180818F7D808334
:104300008DE491E00E94DA15FFCF0895EFEAF1E025
:104310001382128288EE93E0A0E0B0E0848395835C
:10432000A683B7838CE391E09183808385EC90E052
:104330009587848784EC90E09787868780EC90E06F
:10434000918B808B81EC90E0938B828B82EC90E060
:10435000958B848B86EC90E0978B868B118E128EDA
:10436000138E148EECE4F2E08FEF808312821182C0
:10437000148613868FEF9FEFDC0187839087A187D8
:10438000B28761E080E692E00E9426210E948E02C0
:1043900060935C0270935D0280935E0290935F0273
:1043A0000E94981980935B020E94981980935A0288
:1043B0000E949819809359020895CF93DF9300D0FB
:1043C0001F92CDB7DEB7789484B5826084BD84B582
:1043D000816084BD85B5826085BD85B5816085BD00
:1043E00080916E00816080936E00109281008091B8
:1043F0008100826080938100809181008160809340
:104400008100809180008160809380008091B10064
:1044100084608093B1008091B00081608093B0008F
:1044200080917A00846080937A0080917A00826023
:1044300080937A0080917A00816080937A008091E5
:104440007A00806880937A001092C100E091BF01E9
:10445000F091C00182E08083E091BB01F091BC014A
:104460001082E091BD01F091BE018FE38083109234
:10447000C701E091C301F091C40186E08083E0911F
:10448000C101F091C201808180618083E091C1010E
:10449000F091C201808188608083E091C101F09138
:1044A000C201808180688083E091C101F091C201E6
:1044B00080818F7D8083EBE8F3E02491E7E7F3E0F0
:1044C0008491882399F090E0880F991FFC01EA59A4
:1044D000FC4FA591B491FC01E45AFC4F8591949155
:1044E0008FB7F894EC91E22BEC938FBFE4E9F3E003
:1044F0002491E0E8F3E084918823C9F090E0880FEC
:10450000991FFC01EA59FC4F45915491FC01E45A72
:10451000FC4FA591B4919FB7F894FA018081209542
:10452000822380838C91E22FE823EC939FBF80E16C
:104530000E941F0228E730E0DC010E94B6292FEF1D
:1045400033E040E050E00E94F0262093910140913A
:104550006202509163028091640290916502489FCB
:104560009001499F300D589F300D112440916902F0
:1045700050916A0280918401811145C010927601A8
:10458000109275018FEF8093790180937A01809367
:104590007B0180937C0180937D0180937E0181E08B
:1045A00080937F0110928101109280011092780116
:1045B000109277018091A3019091A401892B31F48D
:1045C00083E791E09093A4018093A301E0917101AE
:1045D000F0917201309721F083E791E09583848315
:1045E00083E791E0909372018093710110928301AF
:1045F000109282018AE291E090937401809373019A
:1046000081E080938401539A509376014093750121
:10461000309381012093800180914F02909150024C
:10462000A0915102B0915202843CF9E09F07A1058C
:10463000B10520F484EC99E0A0E0B0E080934F0253
:1046400090935002A0935102B09352028FEF809347
:10465000790180EB80937A0180EF80937B0185E084
:1046600080934C0281E00E94CB03F894109280006A
:104670001092810010928500109284008FEC97E0D8
:104680009093890080938800809181008860809356
:1046900081008091810082608093810080916F0011
:1046A000826080936F00789480E00E94B119882422
:1046B0008A9463E0962EA12CB12C79E1672E712C9F
:1046C00044244A94E5E05E2E8091930190919401F8
:1046D000883E934048F0809192011092940110928C
:1046E00093018F5F8093920180919201853091F5C3
:1046F000109191011092920180E10E941F0228E71F
:1047000030E0DC010E94B629A50194010E94F02648
:10471000CA01B9010E946A282AE939E949E95EE338
:104720000E94FB286B017C01612F70E090E080E02B
:104730000E946A2823E333E343E35FE30E94FB28FC
:104740009B01AC01C701B6010E9454270E94392881
:104750006093910180919101873608F489C28FEAB4
:1047600091E00E94B105892B71F08FEA91E00E94DF
:104770008F058F3F41F087FF37C080938E011092E5
:104780008D0110928C018FEA91E00E94B1056C01BD
:10479000892B29F780919001823009F4A6C18330DA
:1047A00009F4FAC1811113C050924C0280918F011B
:1047B000863009F489C008F041C0823009F468C02D
:1047C00080F5882309F458C0813009F45BC080E08B
:1047D00090E0892B09F478CF0E94BD05882309F465
:1047E00073CF0E94000070CF90918D01911112C083
:1047F00080938D0180918E01893B29F680918D01F6
:10480000863109F680918C01882309F4BCCF0E947F
:10481000B119B9CF90918C019111ECCF80938C019B
:10482000E9CF843009F44AC008F442C040ED57E0B3
:1048300066E080E29EE40E94691EC9CF893009F4D7
:1048400053C060F4873009F447C0883009F0BFCF07
:1048500069E088E99AE30E94031FB9CF8B3009F41D
:104860003CC108F447C0843609F0B1CF0E9403026E
:1048700080E00E94B119ABCF61E080E69AEE0E9421
:10488000681FA5CF62E088E99AE30E947A189FCF5B
:104890000E9498198C010E9498197C010E94981915
:1048A0009701AC0163E080E197E20E94C6048FCFDC
:1048B00064E080E593EC0E94F71589CF65E088E914
:1048C0009AE30E940A1583CF0FEF10E02FEF30E03C
:1048D0004FEF50E067E0E7CF48EE53E068E080E359
:1048E00095E70E94CB1D73CF6AE088E99AE30E94A6
:1048F000E7196DCF8091A20181110FC081E00E9464
:10490000CB038BE494E09093A1018093A0018BE012
:1049100080939F0181E08093A201F12CE12C0E9401
:1049200003020E949819182F0E949819082F0E94BC
:10493000981989830A831B83A3014E195F098E018D
:104940000F5F1F4F26E130E070E060E0C7010E947A
:10495000AC0E0E94E3039FEFE91AF90AEAE1EE16B2
:10496000F104E9F6F12CE12C56E1252E312C0E94C0
:1049700003020E949819182F0E949819082F0E946C
:10498000981989830A831B8391012E193F098E018F
:104990000F5F1F4F50E040E0B70189E190E00E94B7
:1049A000AC0E0E94E303FFEFEF1AFF0A2CE0E216C1
:1049B000F104E9F646E1242E312C0E9403020E9404
:1049C0009819182F0E949819082F0E949819898306
:1049D0000A831B8391012E193F098E010F5F1F4F20
:1049E00050E040E0B70189E190E00E94AC0E0E94E7
:1049F000E30381E0E81AF10800F739E1E32EF12C36
:104A00000E9403020E949819182F0E949819082FDB
:104A10000E94981989830A831B83A3014E195F0999
:104A20008E010F5F1F4F26E130E070E060E0C701AC
:104A30000E94AC0E0E94E303E1E0EE1AF10800F7D9
:104A400026E1E22EF12C0E9403020E949819182FF1
:104A50000E949819082F0E94981989830A831B8342
:104A600097012C193D098E010F5F1F4F49E150E05E
:104A7000B60190E080E00E94AC0E0E94E3032FEFAD
:104A8000C21AD20A8BE0C816D104E9F68AE0E82EF1
:104A9000F12C96E1C92ED12C0E9403020E94981994
:104AA000182F0E949819082F0E94981989830A8349
:104AB0001B8396012E193F098E010F5F1F4F49E19D
:104AC00050E0B70190E080E00E94AC0E0E94E3034A
:104AD00091E0E91AF10800F77ACE44EF51E064E67C
:104AE00080E395E70E94EC1C72CE50924C028091BC
:104AF0008F01863009F442C0B8F4823099F158F43D
:104B0000882361F1813009F062CE4EEC51E062E021
:104B100089ED9CE1E7CF843069F140F14BE953E046
:104B200066E082E693E7DDCE8A3081F178F4883062
:104B300049F168E08930F8F00FEF10E02FEF30E036
:104B40004FEF50E06AE08CE69EE0AFCE8C3001F192
:104B500008F089CE6CE080E592E3C9CE61E084E59F
:104B60009FE48DCE63E082E693E7ABCE64E08EE116
:104B700098E471CE65E082E693E787CE67E081EB4B
:104B800099E369CE69E084E19DEA95CE6BE0F3CFCD
:104B900064E68FEF9FEF73CE50924C0280918F01AD
:104BA000863009F44BC0A8F48230B1F158F4882360
:104BB00069F1813009F00BCE4CED51E062E082E901
:104BC00092EB90CF8430A1F168F166E082EE9EE036
:104BD00042CE8A3009F446C038F48830E9F190F1C9
:104BE0006AE083EC9DE167CE8C3091F208F03BCE19
:104BF0000E9498198C010E9498197C010E949819B2
:104C00009701AC016CE083EC9DE14FCE48EB53E0A3
:104C100061E08CE097E765CE48EB53E063E08CE021
:104C200097E709CE48EB53E064E086E89BE359CE72
:104C30004CED51E065E08CE097E754CF67E08BE204
:104C400098E623CE0FEF10E02FEF30E04FEF50E06B
:104C500068E086E89BE329CE48EB53E069E086E80C
:104C60009BE3E9CD48EB53E06BE083EC9DE1E3CDC2
:104C70000E9403020E94E3030E94580250924C02D9
:104C8000E0916902F0916A024082118212820E94D0
:104C9000E3030E9458029BCD8F929F92AF92BF92E6
:104CA000CF92DF92EF92FF92CF93DF93EC01688176
:104CB00079818A819B81611571058105910521F4B6
:104CC00064E279ED8BE597E02DE133EF41E050E0D0
:104CD0000E94F02649015A019B01AC01A7EAB1E408
:104CE0000E940F276B017C01ACEEB4EFA50194018B
:104CF0000E941D27C60ED71EE81EF91EF7FE06C02D
:104D000081E0C81AD108E10880E8F80AC882D9828F
:104D1000EA82FB82C701B6019F77DF91CF91FF90B6
:104D2000EF90DF90CF90BF90AF909F908F900895BD
:104D30008F929F92AF92BF92CF92DF92EF92FF92AB
:104D40006091000170910101809102019091030135
:104D5000611571058105910521F464E279ED8BE51A
:104D600097E02DE133EF41E050E00E94F026490149
:104D70005A019B01AC01A7EAB1E40E940F276B0125
:104D80007C01ACEEB4EFA50194010E941D27C60E74
:104D9000D71EE81EF91EF7FE06C081E0C81AD1082A
:104DA000E10880E8F80AC0920001D0920101E09287
:104DB0000201F0920301C701B6019F77FF90EF90C7
:104DC000DF90CF90BF90AF909F908F9008956093A9
:104DD00000017093010180930201909303010895F3
:104DE000052E97FB1EF400940E94072757FD07D05D
:104DF0000E94222707FC03D04EF40C9407275095FD
:104E00004095309521953F4F4F4F5F4F08959095B6
:104E10008095709561957F4F8F4F9F4F08950E94A9
:104E20004427A59F900DB49F900DA49F800D911DC8
:104E300011240895B7FF0C940F270E940F27821B9F
:104E4000930B0895A1E21A2EAA1BBB1BFD010DC0F6
:104E5000AA1FBB1FEE1FFF1FA217B307E407F5072A
:104E600020F0A21BB30BE40BF50B661F771F881F06
:104E7000991F1A9469F760957095809590959B019C
:104E8000AC01BD01CF010895A29FB001B39FC00145
:104E9000A39F700D811D1124911DB29F700D811D66
:104EA0001124911D08955058BB27AA270E946B27F3
:104EB0000C94BC280E94AE2838F00E94B52820F03F
:104EC00039F49F3F19F426F40C94AB280EF4E095C6
:104ED000E7FB0C94A528E92F0E94CD2858F3BA17B8
:104EE000620773078407950720F079F4A6F50C9400
:104EF000EF280EF4E0950B2EBA2FA02D0B01B9016F
:104F000090010C01CA01A0011124FF27591B99F03F
:104F1000593F50F4503E68F11A16F040A22F232F4B
:104F2000342F4427585FF3CF469537952795A7959B
:104F3000F0405395C9F77EF41F16BA0B620B730B42
:104F4000840BBAF09150A1F0FF0FBB1F661F771FB3
:104F5000881FC2F70EC0BA0F621F731F841F48F468
:104F6000879577956795B795F7959E3F08F0B0CFF1
:104F70009395880F08F09927EE0F979587950895D8
:104F80000E94D4270C94BC280E94B52858F00E9497
:104F9000AE2840F029F45F3F29F00C94A528511168
:104FA0000C94F0280C94AB280E94CD2868F3992328
:104FB000B1F3552391F3951B550BBB27AA27621715
:104FC0007307840738F09F5F5F4F220F331F441F22
:104FD000AA1FA9F335D00E2E3AF0E0E832D0915056
:104FE0005040E695001CCAF72BD0FE2F29D0660F43
:104FF000771F881FBB1F261737074807AB07B0E886
:1050000009F0BB0B802DBF01FF2793585F4F3AF08B
:105010009E3F510578F00C94A5280C94F0285F3F32
:10502000E4F3983ED4F3869577956795B795F79511
:105030009F5FC9F7880F911D9695879597F90895F9
:10504000E1E0660F771F881FBB1F62177307840795
:10505000BA0720F0621B730B840BBA0BEE1F88F7A4
:10506000E09508950E9439286894B1110C94F028B5
:1050700008950E94D52888F09F5798F0B92F992756
:10508000B751B0F0E1F0660F771F881F991F1AF033
:10509000BA95C9F714C0B13091F00E94EF28B1E081
:1050A00008950C94EF28672F782F8827B85F39F080
:1050B000B93FCCF3869577956795B395D9F73EF4CC
:1050C00090958095709561957F4F8F4F9F4F089574
:1050D000E89409C097FB3EF4909580957095619592
:1050E0007F4F8F4F9F4F9923A9F0F92F96E9BB2748
:1050F0009395F695879577956795B795F111F8CFC4
:10510000FAF4BB0F11F460FF1BC06F5F7F4F8F4F2E
:105110009F4F16C0882311F096E911C0772321F024
:105120009EE8872F762F05C0662371F096E8862FBC
:1051300070E060E02AF09A95660F771F881FDAF713
:10514000880F9695879597F9089597F99F6780E856
:1051500070E060E008959FEF80EC089500240A94C9
:105160001616170618060906089500240A94121642
:105170001306140605060895092E0394000C11F475
:10518000882352F0BB0F40F4BF2B11F460FF04C022
:105190006F5F7F4F8F4F9F4F089557FD9058440F7B
:1051A000551F59F05F3F71F04795880F97FB991F86
:1051B00061F09F3F79F08795089512161306140643
:1051C000551FF2CF4695F1DF08C0161617061806D0
:1051D000991FF1CF86957105610508940895E894AB
:1051E000BB2766277727CB0197F908950E94682986
:1051F00008F48FEF08950E940E290C94BC280E9499
:10520000AE2838F00E94B52820F0952311F00C94B8
:10521000A5280C94AB2811240C94F0280E94CD28CA
:1052200070F3959FC1F3950F50E0551F629FF001F9
:10523000729FBB27F00DB11D639FAA27F00DB11D12
:10524000AA1F649F6627B00DA11D661F829F22279B
:10525000B00DA11D621F739FB00DA11D621F839F22
:10526000A00D611D221F749F3327A00D611D231FF8
:10527000849F600D211D822F762F6A2F11249F5746
:1052800050409AF0F1F088234AF0EE0FFF1FBB1F49
:10529000661F771F881F91505040A9F79E3F510508
:1052A00080F00C94A5280C94F0285F3FE4F3983E1E
:1052B000D4F3869577956795B795F795E7959F5FB2
:1052C000C1F7FE2B880F911D9695879597F9089544
:1052D000990F0008550FAA0BE0E8FEEF1616170607
:1052E000E807F907C0F012161306E407F50798F06F
:1052F000621B730B840B950B39F40A2661F0232B88
:10530000242B252B21F408950A2609F4A140A69503
:105310008FEF811D811D0895DB018F939F930E9464
:105320000F27BF91AF91A29F800D911DA39F900D5C
:10533000B29F900D1124089597FB072E16F4009448
:1053400007D077FD09D00E94BD2907FC05D03EF4A7
:10535000909581959F4F0895709561957F4F089521
:10536000EE0FFF1F0590F491E02D09940E94442751
:10537000B7FF0895821B930B0895AA1BBB1B51E135
:1053800007C0AA1FBB1FA617B70710F0A61BB70BB5
:10539000881F991F5A95A9F780959095BC01CD015A
:1053A00008950F931F93CF93DF938230910510F4EC
:1053B00082E090E0E0917102F091720230E020E032
:1053C000B0E0A0E0309799F42115310509F44AC006
:1053D000281B390B24303105D8F58A819B81611552
:1053E000710589F1FB0193838283FE0111C0408125
:1053F00051810281138148175907E0F04817590776
:1054000099F4109761F012960C93129713961C93CF
:105410003296CF01DF91CF911F910F9108950093A4
:10542000710210937202F4CF2115310551F0421729
:10543000530738F0A901DB019A01BD01DF01F80132
:10544000C1CFEF01F9CF9093720280937102CDCF5B
:10545000FE01E20FF31F81939193225031093983AA
:105460002883D7CF20916F0230917002232B41F413
:1054700020910601309107013093700220936F0252
:1054800020910401309105012115310541F42DB71A
:105490003EB74091080150910901241B350BE09162
:1054A0006F02F0917002E217F307A0F42E1B3F0B7E
:1054B0002817390778F0AC014E5F5F4F2417350786
:1054C00048F04E0F5F1F5093700240936F0281931C
:1054D00091939FCFF0E0E0E09CCFCF93DF930097D4
:1054E000E9F0FC01329713821282A0917102B0910F
:1054F0007202ED0130E020E01097A1F420813181AB
:10550000820F931F20916F02309170022817390784
:1055100009F061C0F0937002E0936F02DF91CF91C8
:105520000895EA01CE17DF07E8F54A815B819E0105
:1055300041155105B1F7E901FB83EA83499159917E
:10554000C40FD51FEC17FD0761F48081918102968D
:10555000840F951FE90199838883828193819B83BE
:105560008A83F0E0E0E012968D919C91139700976A
:10557000B9F52D913C911197CD010296820F931FA1
:1055800020916F02309170022817390739F6309751
:1055900051F51092720210927102B0937002A093B2
:1055A0006F02BCCFD383C28340815181840F951F8A
:1055B000C817D90761F44E5F5F4F88819981480F02
:1055C000591F518340838A819B8193838283211554
:1055D000310509F0B0CFF0937202E09371029ECFD3
:1055E000FD01DC01C0CF13821282D7CF81E090E0B1
:0A55F000F8940C94FB2AF894FFCF06
:1055FA0001000000000073028000000000007C1916
:10560A00000000009E06000000007C197C197C192D
:10561A00B615B215AF1500000000C7148314811423
:10562A00B615B21550052E1200000000F3055305F9
:10563A0080054006B1058F05A3050D0A004D616C72
:10564A006C6F63204C45444D6174726978204661E1
:06565A00696C65640000AC
:00000001FF
